S01B000053657269616C5072696E744578616D706C65312E737265639F
S11300000C945A000C946F000C946F000C946F00C5
S11300100C946F000C946F000C946F000C946F00A0
S11300200C946F000C946F000C946F000C946F0090
S11300300C946F000C946F000C946F000C946F0080
S11300400C946F000C946F000C946F000C946F0070
S11300500C946F000C946F000C946F000C946F0060
S11300600C946F000C946F000C946F000C946F0050
S11300700C946F000C946F000C946F000C946F0040
S11300800C946F000C946F000C946F000C946F0030
S11300900C946F000C946F000C946F000C946F0020
S11300A00C946F000C946F000C946F000C946F0010
S11300B00C946F0011241FBECFEFD8E0DEBFCDBF7C
S11300C011E0A0E0B1E0ECE4F1E002C005900D9293
S11300D0AE30B107D9F70E9494000C94A4000C949C
S11300E000001092C50087E68093C40088E18093E5
S11300F0C10086E08093C2000895E0ECF0E09081B6
S113010095FFFDCF8093C6000895CF93DF93EC0154
S11301108881882331F021960E947D008991811184
S1130120FBCFDF91CF9108950E94710080E091E0B0
S11301300E9485002FEF83E294EF2150804090408D
S10F0140E1F700C00000F2CFF894FFCFFC
S111014C48656C6C6F20776F726C6421210023
S9030000FC
