:100000000C945A000C9477000C9477000C947700B1
:100010000C9477000C9477000C9477000C94770084
:100020000C9477000C9477000C9477000C94790072
:100030000C9477000C9477000C9477000C94770064
:100040000C9477000C9477000C9477000C94770054
:100050000C9477000C9477000C9477000C94770044
:100060000C9477000C9477000C9477000C94770034
:100070000C9477000C9477000C9477000C94770024
:100080000C9477000C9477000C9477000C94770014
:100090000C9477000C9477000C9477000C94770004
:1000A0000C9477000C9477000C9477000C947700F4
:1000B0000C94770011241FBECFEFD8E0DEBFCDBF78
:1000C00011E0A0E0B1E0E0E0F6E002C005900D92A2
:1000D000A630B107D9F721E0A6E0B1E001C01D923A
:1000E000A432B207E1F70E9403010C94FE020C94C3
:1000F00000001F920F920FB60F9211242F938F932F
:100100009F9380912001909121010196909321016C
:1001100080932001809120019091210181309105EF
:1001200019F42EE02BB90CC08230910519F42CE0A3
:100130002BB90CC08330910519F42DE02BB90CC0FC
:100140008430910519F429E02BB90CC08530910554
:1001500019F42BE02BB90CC08630910519F483E01B
:100160008BB90EC08730910519F487E08BB908C0B0
:10017000089731F486E08BB910922101109220018A
:100180009F918F912F910F900FBE0F901F901895F8
:1001900080E480937C0085E880937A000895109233
:1001A0001B0110921A0124E0EAE7F0E0A8E7B0E0B2
:1001B000808180648083808186FDFDCF4D915C913C
:1001C000119780911A0190911B01840F951F9093B4
:1001D0001B0180931A013FEF80E792E0315080408D
:1001E0009040E1F700C00000215011F780911A0102
:1001F00090911B01969587959695879590931B01F5
:1002000080931A0108950E94C8002FE78AE196E0C2
:10021000215080409040E1F700C00000E1E8F0E0AC
:1002200080818A608083EFE6F0E080818260808355
:10023000809104019091050190938900809388003A
:1002400078948FEF8AB91092210110922001C8E8AA
:10025000D0E00E94CF0060911A0170911B0180E0F4
:1002600090E00E94030260931C0170931D01809333
:100270001E0190931F0160911C0170911D018091DE
:100280001E0190911F012BEF3CE945E152E40E94D1
:1002900091022091000130910101409102015091A1
:1002A00003010E9461010E94CD01709323016093BC
:1002B0002201809122019091230199838883C9CFE3
:1002C0005058BB27AA270E9478010C9457020E941D
:1002D000490238F00E94500220F039F49F3F19F48F
:1002E00026F40C9446020EF4E095E7FB0C944002D1
:1002F000E92F0E94680258F3BA1762077307840750
:10030000950720F079F4A6F50C948A020EF4E09596
:100310000B2EBA2FA02D0B01B90190010C01CA01BF
:10032000A0011124FF27591B99F0593F50F4503E6A
:1003300068F11A16F040A22F232F342F4427585F5C
:10034000F3CF469537952795A795F0405395C9F774
:100350007EF41F16BA0B620B730B840BBAF091502C
:10036000A1F0FF0FBB1F661F771F881FC2F70EC0CB
:10037000BA0F621F731F841F48F48795779567959E
:10038000B795F7959E3F08F0B0CF9395880F08F08A
:100390009927EE0F9795879508950E94D401689448
:1003A000B1110C948B0208950E94700288F09F573F
:1003B00098F0B92F9927B751B0F0E1F0660F771F89
:1003C000881F991F1AF0BA95C9F714C0B13091F07F
:1003D0000E948A02B1E008950C948A02672F782F58
:1003E0008827B85F39F0B93FCCF386957795679544
:1003F000B395D9F73EF490958095709561957F4FB0
:100400008F4F9F4F0895E89409C097FB3EF4909555
:100410008095709561957F4F8F4F9F4F9923A9F0DD
:10042000F92F96E9BB279395F6958795779567956C
:10043000B795F111F8CFFAF4BB0F11F460FF1BC0B0
:100440006F5F7F4F8F4F9F4F16C0882311F096E943
:1004500011C0772321F09EE8872F762F05C06623F1
:1004600071F096E8862F70E060E02AF09A95660FAA
:10047000771F881FDAF7880F9695879597F9089563
:1004800097F99F6780E870E060E008959FEF80EC47
:10049000089500240A9416161706180609060895EA
:1004A00000240A9412161306140605060895092E50
:1004B0000394000C11F4882352F0BB0F40F4BF2BBF
:1004C00011F460FF04C06F5F7F4F8F4F9F4F0895FF
:1004D00057FD9058440F551F59F05F3F71F04795F5
:1004E000880F97FB991F61F09F3F79F087950895DA
:1004F000121613061406551FF2CF4695F1DF08C0F9
:10050000161617061806991FF1CF86957105610515
:1005100008940895E894BB2766277727CB0197F9BD
:1005200008950E94A4020C9457020E94490238F0D8
:100530000E94500220F0952311F00C9440020C947C
:10054000460211240C948B020E94680270F3959F5E
:10055000C1F3950F50E0551F629FF001729FBB27BA
:10056000F00DB11D639FAA27F00DB11DAA1F649F56
:100570006627B00DA11D661F829F2227B00DA11D09
:10058000621F739FB00DA11D621F839FA00D611D8F
:10059000221F749F3327A00D611D231F849F600DB0
:1005A000211D822F762F6A2F11249F5750409AF0D9
:1005B000F1F088234AF0EE0FFF1FBB1F661F771F65
:1005C000881F91505040A9F79E3F510580F00C9430
:1005D00040020C948B025F3FE4F3983ED4F386957F
:1005E00077956795B795F795E7959F5FC1F7FE2BD0
:1005F000880F911D9695879597F90895F894FFCFE8
:060600000060D444A306D3
:00000001FF
