S01F000053657269616C41444345535030315072696E74657256322E7372656328
S11300000C945A000C9477000C9477000C947700AD
S11300100C9477000C9477000C9477000C94770080
S11300200C9477000C9477000C9477000C94770070
S11300300C9477000C94FC000C9477000C947700DB
S11300400C9477000C9477000C9477000C94770050
S11300500C9477000C9477000C9477000C94770040
S11300600C9477000C9477000C9477000C94770030
S11300700C9477000C9477000C9477000C94770020
S11300800C9477000C9477000C9477000C94770010
S11300900C9477000C9477000C9477000C94770000
S11300A00C9477000C9477000C9477000C947700F0
S11300B00C94770011241FBECFEFD8E0DEBFCDBF74
S11300C011E0A0E0B1E0E0EEF9E002C005900D928D
S11300D0A03DB107D9F722E0A0EDB1E001C01D9227
S11300E0A33DB207E1F70E94D5000C94EE040C94F2
S11300F0000082E480937C0085E880937A00EFE638
S1130100F0E0808181608083E1E8F0E080818560B7
S1130110808387EF92EC9093850080938400089508
S11301201092D1021092D00224E0EAE7F0E0A8E7AE
S1130130B0E0808180648083808186FDFDCF4D9115
S11301405C9111978091D0029091D102840F951FF8
S11301509093D1028093D0023FEF80E792E0315038
S113016080409040E1F700C00000215011F78091D9
S1130170D0029091D10296958795969587959695FC
S113018087959093D1028093D00208959093C500EF
S11301908093C400E1ECF0E0808188698083E2EC24
S11301A0F0E080818660808308950E94790087E66C
S11301B090E00E94C6002FEF89E698E1215080402C
S11301C09040E1F700C000007894FFCFCF93DF9315
S11301D0FC012081222369F0DC011196E0ECF0E0BF
S11301E0C6ECD0E0908195FFFDCF28832D9121119D
S11301F0F9CFDF91CF9108951F920F920FB60F920E
S113020011242F933F934F935F936F937F938F9317
S11302109F93AF93BF93EF93FF93CF93DF93CDB7A8
S1130220DEB7C358D109DEBFCDBF85E0ECE4F1E011
S1130230DE01119601900D928A95E1F78EE0E1E5D9
S1130240F1E0DE01169601900D928A95E1F785E2C0
S1130250EFE5F1E0DE01549601900D928A95E1F705
S11302608EE0E4E8F1E0DE01D99601900D928A95E2
S1130270E1F78CE2E2E9F1E0DE01A95BBF4F019016
S11302800D928A95E1F781E1EEEBF1E0DE01AD58E4
S1130290BF4F01900D928A95E1F72FEF33EC89E07F
S11302A0215030408040E1F700C00000CE010196AB
S11302B00E94E6009FEF23E234EF9150204030404B
S11302C0E1F700C00000CE0106960E94E6008FEF21
S11302D093E224EF815090402040E1F700C00000F9
S11302E0CE0144960E94E6003FEF89E592E622E0C3
S11302F03150804090402040D9F700C00000CE012A
S1130300C9960E94E6003AEA86EE96E921E0315069
S1130310804090402040D9F70000CE01895B9F4F78
S11303200E94E6003AEA86EE96E921E031508040E8
S113033090402040D9F70000CE018D589F4F0E9475
S1130340E6003FEF83E294EF315080409040E1F7C4
S113035000C0000098B180E2892788B90E9490000B
S11303608091D0029091D1029F938F9380E091E08D
S11303709F938F9381E08F931F9280ED91E09F93E1
S11303808F930E94F60180ED91E00E94E6002AEA34
S113039036EE86E991E02150304080409040D9F714
S11303A0000087EF92EC90938500809384000FB651
S11303B0F894DEBF0FBECDBFCD57DF4F0FB6F89414
S11303C0DEBF0FBECDBFDF91CF91FF91EF91BF9103
S11303D0AF919F918F917F916F915F914F913F91D9
S11303E02F910F900FBE0F901F901895AEE0B0E0C4
S11303F0ECEFF1E00C94C5040D891E898F89988D6A
S113040026E02C831A83098397FF02C080E090E8DA
S113041001979E838D83AE01455E5F4F698D7A8D12
S1130420CE0101960E9426024D815E8157FD0AC0CD
S11304302F813885421753070CF49A01F801E20F13
S1130440F31F10822E96E4E00C94E104ABE0B0E0DC
S1130450ECE2F2E00C94B7046C017B018A01FC012C
S113046017821682838181FFCCC1CE0101963C01A3
S1130470F6019381F70193FD859193FF81917F01AB
S1130480882309F4BAC1853239F493FD859193FF29
S113049081917F01853229F4B60190E00E941D0408
S11304A0E7CF912C212C312CFFE1F315D8F08B32BE
S11304B079F038F4803279F08332A1F4232D20616D
S11304C01DC08D3261F0803369F4232D216016C084
S11304D0832D8260382EE32DE4603E2E2AC0F32D56
S11304E0F8601DC037FC2DC020ED280F2A3040F0E5
S11304F08E32B9F436FC81C1232D2064322E19C00A
S113050036FE06C08AE0989E200D1124922E11C05A
S1130510EAE02E9E200D1124222EF32DF0623F2EB0
S113052008C08C3621F4832D8068382E02C08836AA
S113053041F4F70193FD859193FF81917F0181112E
S1130540B3CF982F9F7D9554933028F40C5F1F4FA1
S11305509FE399830DC0833631F0833771F083357F
S113056009F059C021C0F801808189830E5F1F4FB3
S113057088248394912C530113C02801F2E04F0E78
S1130580511CF801A080B18036FE03C0692D70E0D3
S113059002C06FEF7FEFC5010E9412044C0182017B
S11305A0F32DFF773F2E16C0280122E0420E511C86
S11305B0F801A080B18036FE03C0692D70E002C04E
S11305C06FEF7FEFC5010E9407044C01F32DF06823
S11305D03F2E820133FC1BC0822D90E088169906C1
S11305E0B0F4B60180E290E00E941D042A94F4CF96
S11305F0F50137FC859137FE81915F01B60190E0EA
S11306000E941D0421102A9421E0821A9108811469
S1130610910471F7E8C0843611F0893641F5F80188
S113062037FE07C060817181828193810C5F1F4F07
S113063008C060817181072E000C880B990B0E5F36
S11306401F4FF32DFF763F2E97FF09C0909580959D
S1130650709561957F4F8F4F9F4FF0683F2E2AE032
S113066030E0A3010E945904882E861845C08537BE
S113067031F4232D2F7EB22E2AE030E025C0932DB5
S1130680997FB92E8F36C1F018F4883579F0B5C04A
S1130690803719F0883721F0B0C0E92FE061BE2E11
S11306A0B4FE0DC0FB2DF460BF2E09C034FE0AC099
S11306B0292F2660B22E06C028E030E005C020E1D4
S11306C030E002C020E132E0F801B7FE07C06081EB
S11306D07181828193810C5F1F4F06C0608171819B
S11306E080E090E00E5F1F4FA3010E945904882E02
S11306F08618FB2DFF773F2E36FE0DC0232D2E7F4F
S1130700A22E891458F434FE0BC032FC09C0832D88
S11307108E7EA82E05C0B82CA32C03C0B82C01C013
S1130720B92CA4FE0FC0FE01E80DF11D80818033B9
S113073021F49A2D997EA92E09C0A2FE06C0B39475
S1130740B39404C08A2D867809F0B394A3FC11C035
S1130750A0FE06C0B21488F4280C922C9B180EC07C
S1130760B21460F4B60180E290E00E941D04B394D8
S1130770F7CFB21418F42B1802C0982C212CA4FE25
S113078010C0B60180E390E00E941D04A2FE17C0D1
S1130790A1FC03C088E790E002C088E590E0B601C0
S11307A00CC08A2D867859F0A1FE02C08BE201C0EC
S11307B080E2A7FC8DE2B60190E00E941D0489143A
S11307C038F4B60180E390E00E941D049A94F7CFB8
S11307D08A94F301E80DF11D8081B60190E00E9436
S11307E01D048110F5CF222009F442CEB60180E227
S11307F090E00E941D042A94F6CFF6018681978129
S113080002C08FEF9FEF2B96E2E10C94D304FC011E
S11308100590615070400110D8F7809590958E0F27
S11308209F1F0895FC016150704001900110D8F79A
S1130830809590958E0F9F1F08950F931F93CF93CC
S1130840DF93FB01238121FD03C08FEF9FEF2CC0B9
S113085022FF16C0468157812481358142175307F0
S113086044F4A081B1819D012F5F3F4F31832083E8
S11308708C93268137812F5F3F4F3783268314C0A3
S11308808B01EC01FB010084F185E02D0995892B96
S1130890E1F6D80116968D919C91179701961796BB
S11308A09C938E931697CE01DF91CF911F910F9158
S11308B00895FA01AA27283051F1203181F1E894F2
S11308C06F936E7F6E5F7F4F8F4F9F4FAF4FB1E03F
S11308D03ED0B4E03CD0670F781F891F9A1FA11D3A
S11308E0680F791F8A1F911DA11D6A0F711D811D3B
S11308F0911DA11D20D009F468943F912AE0269F00
S113090011243019305D3193DEF6CF010895462F5E
S11309104770405D4193B3E00FD0C9F7F6CF462F3F
S11309204F70405D4A3318F0495D31FD40524193A8
S113093002D0A9F7EACFB4E0A69597958795779565
S11309406795BA95C9F700976105710508959B01EC
S1130950AC010A2E06945795479537952795BA9575
S1130960C9F7620F731F841F951FA01D08952F924E
S11309703F924F925F926F927F928F929F92AF922B
S1130980BF92CF92DF92EF92FF920F931F93CF9378
S1130990DF93CDB7DEB7CA1BDB0B0FB6F894DEBF0F
S11309A00FBECDBF09942A88398848885F846E8435
S11309B07D848C849B84AA84B984C884DF80EE807F
S11309C0FD800C811B81AA81B981CE0FD11D0FB688
S11309D0F894DEBF0FBECDBFED010895F894FFCFAC
S11309E04745542068747470733A2F2F6170692ED0
S11309F07468696E67737065616B2E636F6D2F75B4
S1130A0070646174653F6170695F6B65793D4454DE
S1130A104A5752504C394335414545305951266661
S1130A2069656C64313D2533640D0A0041540D0A37
S1130A300041542B43574D4F44453D310D0A00416D
S1130A40542B43574A41503D224265656869766597
S1130A5020322E3447222C22303331383230313692
S1130A60220D0A0041542B4349504D55583D300D39
S1130A700A0041542B43495053544152543D22548B
S1130A804350222C226170692E7468696E677370FA
S1130A9065616B2E636F6D222C38300D0A00415452
S1130AA02B43495053454E443D3130300D0A00002C
S9030000FC
