:100000000C945A000C9464000C9464000C946400EA
:100010000C9464000C9464000C9464000C946400D0
:100020000C9464000C9464000C9464000C946400C0
:100030000C9464000C9464000C9464000C946400B0
:100040000C9464000C9464000C9464000C946400A0
:100050000C9464000C9464000C9464000C94640090
:100060000C9464000C9464000C9464000C94640080
:100070000C9464000C9464000C9464000C94640070
:100080000C9464000C9464000C9464000C94640060
:100090000C9464000C9464000C9464000C94640050
:1000A0000C9464000C9464000C9464000C94640040
:1000B0000C94640011241FBECFEFD8E0DEBFCDBF8B
:1000C0000E9466000C947A000C9400008FEF84B9B3
:1000D00017B888B99CE386B18D37E9F795B92FE851
:1000E00030ED83E0215030408040E1F700C0000057
:0800F00015B8F1CFF894FFCF21
:00000001FF
