:100000000C945A000C9472000C9464000C946400DC
:100010000C9464000C9464000C9464000C946400D0
:100020000C9464000C9464000C9464000C946400C0
:100030000C9464000C9464000C9464000C946400B0
:100040000C9464000C9464000C9464000C946400A0
:100050000C9464000C9464000C9464000C94640090
:100060000C9464000C9464000C9464000C94640080
:100070000C9464000C9464000C9464000C94640070
:100080000C9464000C9464000C9464000C94640060
:100090000C9464000C9464000C9464000C94640050
:1000A0000C9464000C9464000C9464000C94640040
:1000B0000C94640011241FBECFEFD8E0DEBFCDBF8B
:1000C0000E9466000C948F000C9400008FEF84B99E
:1000D00085B984E08BB982E08093690081E08DBBB3
:1000E0007894FFCF1F920F920FB60F9211242F9387
:1000F0008F939F938BEF85B92FEF88E09DE321507D
:1001000080409040E1F700C000008FEF85B99F91DB
:100110008F912F910F900FBE0F901F901895F8940C
:02012000FFCF0F
:00000001FF
