S023000045787465726E616C50696E496E7465727275707443436F646556312E7372656385
S11300000C945A000C9471000C9464000C946400D9
S11300100C9464000C9464000C9464000C946400CC
S11300200C9464000C9464000C9464000C946400BC
S11300300C9464000C9464000C9464000C946400AC
S11300400C9464000C9464000C9464000C9464009C
S11300500C9464000C9464000C9464000C9464008C
S11300600C9464000C9464000C9464000C9464007C
S11300700C9464000C9464000C9464000C9464006C
S11300800C9464000C9464000C9464000C9464005C
S11300900C9464000C9464000C9464000C9464004C
S11300A00C9464000C9464000C9464000C9464003C
S11300B00C94640011241FBECFEFD8E0DEBFCDBF87
S11300C00E9466000C9483000C94000080E284B9C2
S11300D084E08BB982E08093690081E08DBB7894E1
S11300E0FFCF1F920F920FB60F9211248F939F93FD
S11300F095B180E2892785B99F918F910F900FBEAA
S10D01000F901F901895F894FFCF9C
S9030000FC
