S01B000053657269616C5072696E744578616D706C65322E737265639E
S11300000C945A000C9464000C9464000C946400E6
S11300100C9464000C9464000C9464000C946400CC
S11300200C9464000C9464000C9464000C946400BC
S11300300C9464000C9464000C9464000C946400AC
S11300400C9464000C9464000C9464000C9464009C
S11300500C9464000C9464000C9464000C9464008C
S11300600C9464000C9464000C9464000C9464007C
S11300700C9464000C9464000C9464000C9464006C
S11300800C9464000C9464000C9464000C9464005C
S11300900C9464000C9464000C9464000C9464004C
S11300A00C9464000C9464000C9464000C9464003C
S11300B00C94640011241FBECFEFD8E0DEBFCDBF87
S11300C00E9478000C94FC000C94000088E080935B
S11300D0C10086E08093C20087E68093C40008953F
S11300E0E0ECF0E0908195FFFDCF8093C600089589
S11300F00E94660087E880937A0088EC80937C00F5
S1130100CAE7D0E00F2EF8E7AF2EB12CF02D0F2E5A
S1130110F9E7CF2ED12CF02D0F2EF4E6EF2EF12C93
S1130120F02D0F2EFAE08F2E912CF02D8881806413
S11301308883888184FFFDCF888180618883F5016D
S11301409081F6018081292F30E0A901582B8A0182
S11301500152114032F48DE20E9470001195019514
S11301601109C801B7010E94D4008C0180E3860FF5
S11301700E947000C801B4010E94D400182F80E3CB
S1130180860F0E94700080E3810F0E9470008DE052
S11301900E9470005FEF81EE94E0515080409040E7
S11301A0E1F700C00000C2CF97FB072E16F40094BD
S11301B007D077FD09D00E94E80007FC05D03EF483
S11301C0909581959F4F0895709561957F4F0895FF
S11301D0AA1BBB1B51E107C0AA1FBB1FA617B70769
S11301E010F0A61BB70B881F991F5A95A9F7809585
S10F01F09095BC01CD010895F894FFCF58
S9030000FC
