S0100000444132435F5432312E7372656304
S11300000C945A000C946C000C946C000C946C00CE
S11300100C946C000C946C000C946C000C946C00AC
S11300200C946C000C946C000C946C000C946C009C
S11300300C946C000C946C000C946C000C946C008C
S11300400C9480000C946C000C946C000C946C0068
S11300500C946C000C946C000C946C000C946C006C
S11300600C946C000C946C000C946C000C946C005C
S11300700C946C000C946C000C946C000C946C004C
S11300800C946C000C946C000C946C000C946C003C
S11300900C946C000C946C000C946C000C946C002C
S11300A00C946C000C946C000C946C000C946C001C
S11300B00C946C0011241FBECFEFD8E0DEBFCDBF7F
S11300C021E0A0E0B1E001C01D92A230B207E1F747
S11300D00E946E000C94BD000C940000109201016B
S11300E01092000184E084B9EEE6F0E08081816042
S11300F0808388E386BD789485B5856085BDFFCF10
S11301001F920F920FB60F9211242F933F938F9348
S11301109F938091000190910101019690930101B8
S11301208093000180910001909101018B31910530
S113013024F424E026BD21E025BB8B31910511F484
S113014015B812C09C012C5131092131310520F41C
S113015024E026BD21E025BB8D9731F48FEF85B9CE
S113016010920101109200019F918F913F912F9164
S11101700F900FBE0F901F901895F894FFCFBC
S9030000FC
