:100000000C945A000C946C000C946C000C946C00D2
:100010000C946C000C946C000C946C000C946C00B0
:100020000C946C000C946C000C946C000C946C00A0
:100030000C946C000C946C000C946C000C946C0090
:100040000C9494000C946C000C946C000C946C0058
:100050000C946C000C946C000C946C000C946C0070
:100060000C946C000C946C000C946C000C946C0060
:100070000C946C000C946C000C946C000C946C0050
:100080000C946C000C946C000C946C000C946C0040
:100090000C946C000C946C000C946C000C946C0030
:1000A0000C946C000C946C000C946C000C946C0020
:1000B0000C946C0011241FBECFEFD8E0DEBFCDBF83
:1000C00021E0A0E0B1E001C01D92A230B207E1F74B
:1000D0000E946E000C94B6000C9400001092010176
:1000E000109200018FEF84B9EEE6F0E0808181602C
:1000F000808388E386BD789485B5856085BD2FEFC4
:1001000042E03BEF25B986B18D37E1F7109201014E
:100110001092000146BD35B9809100019091010116
:100120008D349105CCF3EECF1F920F920FB60F9244
:1001300011248F939F93809100019091010101966A
:100140009093010180930001809100019091010141
:100150008D34910524F482E086BD81E085BB9F91BA
:100160008F910F900FBE0F901F901895F894FFCFAE
:00000001FF
