S0200000537769746368436F6E74726F6C6C65644C454443436F64652E73726563E9
S11300000C9434000C943E000C943E000C943E007E
S11300100C943E000C943E000C943E000C943E0064
S11300200C943E000C943E000C943E000C943E0054
S11300300C943E000C943E000C943E000C943E0044
S11300400C943E000C943E000C943E000C943E0034
S11300500C943E000C943E000C943E000C943E0024
S11300600C943E000C943E0011241FBECFEFD8E048
S1130070DEBFCDBF0E9440000C9455000C940000DC
S11300808FEF84B917B888B99CE395B986B18D37D9
S1130090E1F715B82FEF38E08DE321503040804070
S11100A0E1F700C0000015B8F0CFF894FFCFD0
S9030000FC
