:100000000C945A000C9477000C9477000C947700B1
:100010000C9477000C9477000C9477000C94770084
:100020000C9477000C9477000C9477000C94770074
:100030000C9477000C9477000C9477000C94770064
:100040000C9477000C9477000C9477000C94770054
:100050000C9477000C9477000C9477000C94770044
:100060000C9477000C9477000C9477000C94770034
:100070000C9477000C9477000C9477000C94770024
:100080000C9477000C9477000C9477000C94770014
:100090000C9477000C9477000C9477000C94770004
:1000A0000C9477000C9477000C9477000C947700F4
:1000B0000C94770011241FBECFEFD8E0DEBFCDBF78
:1000C00011E0A0E0B1E0E0E7FCE002C005900D9295
:1000D000A831B107D9F721E0A8E1B1E001C01D9234
:1000E000A736B207E1F70E94F3000C9436060C9491
:1000F000000084E480937C0085E880937A00089572
:1001000010922D0110922C0128E0EAE7F0E0A8E718
:10011000B0E0808180648083808186FDFDCF4D9139
:100120005C91119780912C0190912D01840F951F66
:1001300090932D0180932C013FEF80E792E03150A6
:1001400080409040E1F700C00000215011F78091FD
:100150002C0190912D01969587959695879596956A
:10016000879590932D0180932C0108959093C5005D
:100170008093C40088E08093C10086E08093C20031
:100180000895CF93DF93FC012081222369F0DC01E5
:100190001196E0ECF0E0C6ECD0E0908195FFFDCF49
:1001A00028832D912111F9CFDF91CF910895CF931D
:1001B000DF9300D000D01F92CDB7DEB785E0E0E03E
:1001C000F1E0DE01119601900D928A95E1F7CE01E2
:1001D00001960E94C1000F900F900F900F900F900A
:1001E000DF91CF9108950E94790087E690E00E9408
:1001F000B60085E091E00E94C1002FE78AE196E019
:10020000215080409040E1F700C000001092310181
:1002100010923001109233011092320110922F018E
:1002200010922E010F2EF4EFCF2EDD24D394F02D5B
:100230000F2EEE24EA94F3E0FF2EF02D02E111E000
:100240000F2EF4E1BF2EF02DC8E1D1E00E94800016
:1002500020912C0130912D012C9DC0012D9D900DE0
:100260003C9D900D1124B7010E942A0370932D012B
:1002700060932C0180912C0190912D01909331017C
:1002800080933001609130017091310180E090E005
:100290000E942F0226E636E646EE5FE30E94BD028C
:1002A00020E030E040E052E40E9494010E9400020D
:1002B000709333016093320180913001909131014C
:1002C000029758F480913001909131019195819578
:1002D0009109909331018093300180913201909186
:1002E00033019F938F931F930F931F92BF92DF93BE
:1002F000CF930E943E03CE010E94C100CE010E9416
:10030000D7009FEF27EA81E6915020408040E1F737
:1003100000C000008DB79EB708960FB6F8949EBF38
:100320000FBE8DBF93CF5058BB27AA270E94AB01A9
:100330000C9483020E94750238F00E947C0220F027
:1003400039F49F3F19F426F40C9472020EF4E095F0
:10035000E7FB0C946C02E92F0E94940258F3BA1741
:10036000620773078407950720F079F4A6F50C94CB
:10037000B6020EF4E0950B2EBA2FA02D0B01B90199
:1003800090010C01CA01A0011124FF27591B99F00B
:10039000593F50F4503E68F11A16F040A22F232F17
:1003A000342F4427585FF3CF469537952795A79567
:1003B000F0405395C9F77EF41F16BA0B620B730B0E
:1003C000840BBAF09150A1F0FF0FBB1F661F771F7F
:1003D000881FC2F70EC0BA0F621F731F841F48F434
:1003E000879577956795B795F7959E3F08F0B0CFBD
:1003F0009395880F08F09927EE0F979587950895A4
:100400000E949C0288F09F5798F0B92F9927B75106
:10041000B0F0E1F0660F771F881F991F1AF0BA95A8
:10042000C9F714C0B13091F00E94B602B1E008954E
:100430000C94B602672F782F8827B85F39F0B93F40
:10044000CCF3869577956795B395D9F73EF490955B
:100450008095709561957F4F8F4F9F4F0895E894D9
:1004600009C097FB3EF490958095709561957F4FFC
:100470008F4F9F4F9923A9F0F92F96E9BB279395AA
:10048000F695879577956795B795F111F8CFFAF4BA
:10049000BB0F11F460FF1BC06F5F7F4F8F4F9F4FEB
:1004A00016C0882311F096E911C0772321F09EE849
:1004B000872F762F05C0662371F096E8862F70E0AF
:1004C00060E02AF09A95660F771F881FDAF7880F89
:1004D0009695879597F9089597F99F6780E870E05A
:1004E00060E008959FEF80EC089500240A941616AA
:1004F000170618060906089500240A941216130612
:10050000140605060895092E0394000C11F488239F
:1005100052F0BB0F40F4BF2B11F460FF04C06F5FBB
:100520007F4F8F4F9F4F089557FD9058440F551F91
:1005300059F05F3F71F04795880F97FB991F61F065
:100540009F3F79F087950895121613061406551FDC
:10055000F2CF4695F1DF08C0161617061806991F48
:10056000F1CF86957105610508940895E894BB273D
:1005700066277727CB0197F908950E94D0020C9443
:1005800083020E94750238F00E947C0220F09523BD
:1005900011F00C946C020C94720211240C94B702AA
:1005A0000E94940270F3959FC1F3950F50E0551F80
:1005B000629FF001729FBB27F00DB11D639FAA27B8
:1005C000F00DB11DAA1F649F6627B00DA11D661F07
:1005D000829F2227B00DA11D621F739FB00DA11D28
:1005E000621F839FA00D611D221F749F3327A00DE2
:1005F000611D231F849F600D211D822F762F6A2F7E
:1006000011249F5750409AF0F1F088234AF0EE0FE2
:10061000FF1FBB1F661F771F881F91505040A9F70F
:100620009E3F510580F00C946C020C94B7025F3F22
:10063000E4F3983ED4F3869577956795B795F7954B
:10064000E7959F5FC1F7FE2B880F911D96958795C3
:1006500097F90895AA1BBB1B51E107C0AA1FBB1F36
:10066000A617B70710F0A61BB70B881F991F5A953E
:10067000A9F780959095BC01CD010895AEE0B0E05A
:10068000E4E4F3E00C940D060D891E898F89988DA2
:1006900026E02C831A83098397FF02C080E090E84C
:1006A00001979E838D83AE01455E5F4F698D7A8D84
:1006B000CE0101960E946E034D815E8157FD0AC0F6
:1006C0002F813885421753070CF49A01F801E20F85
:1006D000F31F10822E96E4E00C942906ABE0B0E004
:1006E000E4E7F3E00C94FF056C017B018A01FC0157
:1006F00017821682838181FFCCC1CE0101963C0115
:10070000F6019381F70193FD859193FF81917F011C
:10071000882309F4BAC1853239F493FD859193FF9A
:1007200081917F01853229F4B60190E00E94650530
:10073000E7CF912C212C312CFFE1F315D8F08B322F
:1007400079F038F4803279F08332A1F4232D2061DE
:100750001DC08D3261F0803369F4232D216016C0F5
:10076000832D8260382EE32DE4603E2E2AC0F32DC7
:10077000F8601DC037FC2DC020ED280F2A3040F056
:100780008E32B9F436FC81C1232D2064322E19C07B
:1007900036FE06C08AE0989E200D1124922E11C0CC
:1007A000EAE02E9E200D1124222EF32DF0623F2E22
:1007B00008C08C3621F4832D8068382E02C088361C
:1007C00041F4F70193FD859193FF81917F018111A0
:1007D000B3CF982F9F7D9554933028F40C5F1F4F13
:1007E0009FE399830DC0833631F0833771F08335F1
:1007F00009F059C021C0F801808189830E5F1F4F25
:1008000088248394912C530113C02801F2E04F0EE9
:10081000511CF801A080B18036FE03C0692D70E044
:1008200002C06FEF7FEFC5010E945A054C018201A3
:10083000F32DFF773F2E16C0280122E0420E511CF7
:10084000F801A080B18036FE03C0692D70E002C0BF
:100850006FEF7FEFC5010E944F054C01F32DF0684B
:100860003F2E820133FC1BC0822D90E08816990632
:10087000B0F4B60180E290E00E9465052A94F4CFBE
:10088000F50137FC859137FE81915F01B60190E05B
:100890000E94650521102A9421E0821A9108811492
:1008A000910471F7E8C0843611F0893641F5F801FA
:1008B00037FE07C060817181828193810C5F1F4F79
:1008C00008C060817181072E000C880B990B0E5FA8
:1008D0001F4FF32DFF763F2E97FF09C0909580950F
:1008E000709561957F4F8F4F9F4FF0683F2E2AE0A4
:1008F00030E0A3010E94A105882E861845C08537E7
:1009000031F4232D2F7EB22E2AE030E025C0932D26
:10091000997FB92E8F36C1F018F4883579F0B5C0BB
:10092000803719F0883721F0B0C0E92FE061BE2E82
:10093000B4FE0DC0FB2DF460BF2E09C034FE0AC00A
:10094000292F2660B22E06C028E030E005C020E145
:1009500030E002C020E132E0F801B7FE07C060815C
:100960007181828193810C5F1F4F06C0608171810C
:1009700080E090E00E5F1F4FA3010E94A105882E2A
:100980008618FB2DFF773F2E36FE0DC0232D2E7FC0
:10099000A22E891458F434FE0BC032FC09C0832DFA
:1009A0008E7EA82E05C0B82CA32C03C0B82C01C085
:1009B000B92CA4FE0FC0FE01E80DF11D808180332B
:1009C00021F49A2D997EA92E09C0A2FE06C0B394E7
:1009D000B39404C08A2D867809F0B394A3FC11C0A7
:1009E000A0FE06C0B21488F4280C922C9B180EC0EE
:1009F000B21460F4B60180E290E00E946505B39401
:100A0000F7CFB21418F42B1802C0982C212CA4FE96
:100A100010C0B60180E390E00E946505A2FE17C0F9
:100A2000A1FC03C088E790E002C088E590E0B60131
:100A30000CC08A2D867859F0A1FE02C08BE201C05D
:100A400080E2A7FC8DE2B60190E00E946505891462
:100A500038F4B60180E390E00E9465059A94F7CFE0
:100A60008A94F301E80DF11D8081B60190E00E94A7
:100A700065058110F5CF222009F442CEB60180E24F
:100A800090E00E9465052A94F6CFF6018681978151
:100A900002C08FEF9FEF2B96E2E10C941B06FC0146
:100AA0000590615070400110D8F7809590958E0F99
:100AB0009F1F0895FC016150704001900110D8F70C
:100AC000809590958E0F9F1F08950F931F93CF933E
:100AD000DF93FB01238121FD03C08FEF9FEF2CC02B
:100AE00022FF16C046815781248135814217530762
:100AF00044F4A081B1819D012F5F3F4F318320835A
:100B00008C93268137812F5F3F4F3783268314C014
:100B10008B01EC01FB010084F185E02D0995892B07
:100B2000E1F6D80116968D919C911797019617962C
:100B30009C938E931697CE01DF91CF911F910F91C9
:100B40000895FA01AA27283051F1203181F1E89463
:100B50006F936E7F6E5F7F4F8F4F9F4FAF4FB1E0B0
:100B60003ED0B4E03CD0670F781F891F9A1FA11DAB
:100B7000680F791F8A1F911DA11D6A0F711D811DAC
:100B8000911DA11D20D009F468943F912AE0269F71
:100B900011243019305D3193DEF6CF010895462FD0
:100BA0004770405D4193B3E00FD0C9F7F6CF462FB1
:100BB0004F70405D4A3318F0495D31FD405241931A
:100BC00002D0A9F7EACFB4E0A695979587957795D7
:100BD0006795BA95C9F700976105710508959B015E
:100BE000AC010A2E06945795479537952795BA95E7
:100BF000C9F7620F731F841F951FA01D08952F92C0
:100C00003F924F925F926F927F928F929F92AF929C
:100C1000BF92CF92DF92EF92FF920F931F93CF93E9
:100C2000DF93CDB7DEB7CA1BDB0B0FB6F894DEBF80
:100C30000FBECDBF09942A88398848885F846E84A6
:100C40007D848C849B84AA84B984C884DF80EE80F0
:100C5000FD800C811B81AA81B981CE0FD11D0FB6F9
:100C6000F894DEBF0FBECDBFED010895F894FFCF1D
:100C700041540D0A00436F6E6E6563746564210D07
:080C80000A002533640D0A008F
:00000001FF
