:100000000C94DB000C94F8000C94F8000C94F800AD
:100010000C94F8000C94F8000C94F8000C94F80080
:100020000C94F8000C94F8000C94F8000C94F80070
:100030000C94F8000C94F8000C94F8000C94F80060
:100040000C94F8000C94F8000C94F8000C94F80050
:100050000C94F8000C94F8000C94F8000C94F80040
:100060000C94F8000C94F8000C94F8000C94F80030
:100070000C94F8000C94F8000C94F8000C94F80020
:100080000C94F8000C94F8000C94F8000C94F80010
:100090000C94F8000C94F8000C94F8000C94F80000
:1000A0000C94F8000C94F8000C94F8000C94F800F0
:1000B0000C94F8006E616E00696E660000407A1064
:1000C000F35A00A0724E18090010A5D4E80000E809
:1000D0007648170000E40B54020000CA9A3B000067
:1000E00000E1F505000080969800000040420F00F6
:1000F0000000A08601000000102700000000E803B7
:10010000000000006400000000000A000000000081
:100110000100000000002C76D888DC674F0823DF40
:10012000C1DFAE59E1B1B796E5E3E453C63AE65113
:10013000997696E8E6C28426EB898C9B62ED407C3A
:100140006FFCEFBC9C9F40F2BAA56FA5F490055AD6
:100150002AF75C936B6CF9676DC11BFCE0E40D47FB
:10016000FEF520E6B500D0ED902E0300943577051E
:100170000080841E080000204E0A000000C80C33D6
:100180003333330F986E12831141EF8D2114893B65
:10019000E65516CFFEE6DB18D1844B381BF77C1DE5
:1001A000901DA4BBE424203284725E228100C9F138
:1001B00024ECA1E53D2711241FBECFEFD8E0DEBF20
:1001C000CDBF11E0A0E0B1E0E6EAFFE002C005909B
:1001D0000D92A432B107D9F721E0A4E2B1E001C049
:1001E0001D92AF33B207E1F70E941B010C94D107B7
:1001F0000C9400009093C5008093C40088E0809325
:10020000C10086E08093C2000895CF93DF93FC0184
:100210002081222369F0DC011196E0ECF0E0C6ECCD
:10022000D0E0908195FFFDCF28832D912111F9CF4A
:10023000DF91CF91089587E690E00E94FA008EE06A
:1002400091E00E9405012FE78AE196E0215080406D
:100250009040E1F700C000000F2EFBE1EF2EF1E02F
:10026000FF2EF02D0F2EF9E1DF2EF02DC4E2D1E0AC
:1002700001E211E08AE091E00E94050188E091E04E
:100280000E9405010E94840580933D0190933E01E8
:100290009F938F93FF92EF921F92DF92DF93CF9302
:1002A0000E94BE06CE010E94050188E091E00E94F6
:1002B0000501809107018F93809106018F938091B2
:1002C00005018F93809104018F931F930F93DF9308
:1002D000CF930E94EE06CE010E94050188E091E0D6
:1002E0000E9405018FEF93ED20E381509040204064
:1002F000E1F700C000008DB79EB740960FB6F894A6
:100300009EBF0FBE8DBFB6CFA0E1B0E0EAE8F1E03E
:100310000C9401057C011B016A01FC011782168205
:10032000838181FF44C39E012F5F3F4F3901F70155
:100330009381F10193FD859193FF81911F018823A2
:1003400009F431C3853239F493FD859193FF81918E
:100350001F01853239F4B70190E00E9482065601F0
:100360006501E5CF10E0512C912CFFE1F915D8F093
:100370008B3279F038F4803279F08332A1F4F92DA0
:10038000F0612EC08D3261F0803369F4292D216037
:100390002DC0392D3260932E892D8460982E2AC06D
:1003A000E92DE86015C097FC2DC020ED280F2A30FC
:1003B00088F496FE06C03AE0139F200D1124122FF8
:1003C00019C08AE0589E200D1124522EE92DE062BA
:1003D0009E2E10C08E3231F496FCE5C2F92DF064E9
:1003E0009F2E08C08C3621F4292D2068922E02C041
:1003F000883641F4F10193FD859193FF81911F01AE
:100400008111B3CF9BEB980F933020F4992D90611D
:10041000805E07C09BE9980F933008F066C1992D64
:100420009F7E96FF16E09F73992E853619F490648F
:10043000992E08C0863621F4392F3068932E02C0D9
:100440001111115097FE07C01C3350F444244394FB
:10045000410E27E00BC0183038F027E017E005C048
:1004600027E09CE3492E02C0212F412C560184E055
:10047000A80EB11CF6016081718182819381042DE7
:10048000A3010E9494056C01F981FC87F0FF02C072
:10049000F3FF06C091FC06C092FE06C000E205C054
:1004A0000DE203C00BE201C000E08C858C7019F0F6
:1004B00001115AC29BC297FE10C04C0CFC85F4FF80
:1004C00004C08A81813309F44A94141474F528E035
:1004D000241578F588E0482E2CC096FC2AC0812F80
:1004E00090E08C159D059CF03CEFC3163FEFD306C2
:1004F00074F0892D8068982E0AC0E2E0F0E0EC0FDD
:10050000FD1FE10FF11D8081803319F4115011118D
:10051000F4CF97FE0EC044244394410E812F90E007
:10052000C816D9062CF41C1904C04424439401C0F5
:1005300010E097FE06C01C141D0434F4C601019699
:1005400005C085E090E002C081E090E001110196D5
:10055000112331F0212F30E02F5F3F4F820F931F87
:10056000252D30E08217930714F4581A01C0512C3E
:10057000892D897049F4552039F0B70180E290E067
:100580000E9482065A94F7CF002329F0B701802FEA
:1005900090E00E94820693FC09C0552039F0B70113
:1005A00080E390E00E9482065A94F7CF97FE4CC0F9
:1005B0004601D7FE02C0812C912CC60188199909E9
:1005C000F301E80FF91FFE87ED8796012419310921
:1005D000388B2F87012F10E01195019511093FEFFE
:1005E0008316930629F4B7018EE290E00E948206FA
:1005F000C814D9044CF08F8598898815990524F47E
:10060000ED85FE85818101C080E3F1E08F1A9108BC
:100610002D853E852F5F3F4F3E872D8780169106A3
:100620002CF0B70190E00E948206D9CFC814D904FB
:1006300041F49A81963320F4953319F43C8534FFC4
:1006400081E3B70190E04EC08A81813319F09C8527
:100650009F7E9C87B70190E00E948206111105C021
:1006600094FC18C085E690E017C0B7018EE290E0D8
:100670000E9482061E5F82E001E0080FF301E80F8E
:10068000F11D8081B70190E00E948206802F011346
:10069000F3CFE6CF85E490E0B7010E948206D7FC55
:1006A00006C0C114D10441F4EC85E4FF05C0D19427
:1006B000C194D1088DE201C08BE2B70190E00E94A5
:1006C000820680E32AE0C216D1042CF08F5FFAE0A4
:1006D000CF1AD108F7CFB70190E00E948206B70188
:1006E000C601C0960E94820654C1833631F083371A
:1006F00079F0833509F056C020C0560132E0A30ED0
:10070000B11CF6018081898301E010E0630112C011
:100710005601F2E0AF0EB11CF601C080D18096FE0A
:1007200003C0612F70E002C06FEF7FEFC6010E942F
:1007300077068C01F92DFF7714C0560122E0A20E36
:10074000B11CF601C080D18096FE03C0612F70E01D
:1007500002C06FEF7FEFC6010E946C068C01F92D7D
:10076000F0689F2EF3FD1AC0852D90E00817190739
:10077000A8F4B70180E290E00E9482065A94F4CF78
:10078000F60197FC859197FE81916F01B70190E08A
:100790000E94820651105A94015011090115110549
:1007A00079F7F7C0843611F0893661F5560197FE66
:1007B00009C024E0A20EB11CF60160817181828122
:1007C00093810AC0F2E0AF0EB11CF6016081718125
:1007D000072E000C880B990BF92DFF769F2E97FFA3
:1007E00009C090958095709561957F4F8F4F9F4F71
:1007F000F0689F2E2AE030E0A3010E941007C82E67
:10080000C6183FC0092D853721F40F7E2AE030E05D
:100810001DC0097F8F3691F018F4883559F0C3C098
:10082000803719F0883711F0BEC0006104FF09C09D
:10083000046007C094FE08C0066006C028E030E0EF
:1008400005C020E130E002C020E132E0560107FFA0
:1008500009C084E0A80EB11CF6016081718182811B
:10086000938108C0F2E0AF0EB11CF6016081718186
:1008700080E090E0A3010E941007C82EC6180F77F1
:10088000902E96FE0BC0092D0E7FC11650F494FEDB
:100890000AC092FC08C0092D0E7E05C0DC2C092D73
:1008A00003C0DC2C01C0D12E04FF0DC0FE01EC0DF5
:1008B000F11D8081803311F4097E09C002FF06C05A
:1008C000D394D39404C0802F867809F0D39403FD89
:1008D00011C000FF06C01C2DD51480F4150D1D1984
:1008E0000DC0D51458F4B70180E290E00E94820652
:1008F000D394F7CFD51410F45D1801C0512C04FF28
:1009000010C0B70180E390E00E94820602FF17C08A
:1009100001FD03C088E790E002C088E590E0B701E0
:100920000CC0802F867859F001FF02C08BE201C015
:1009300080E207FD8DE2B70190E00E948206C116B9
:1009400038F4B70180E390E00E9482061150F7CF9F
:10095000CA94F301EC0DF11D8081B70190E00E9473
:100960008206C110F5CF15C0F4E0F51560F584E0FE
:10097000581A93FE1FC0011127C02C8523FF2AC0DF
:1009800004EB10E0392D3071932EF8018491811120
:1009900024C0552009F4E4CCB70180E290E00E9425
:1009A00082065A94F6CFF7018681978126C08FEF91
:1009B0009FEF23C0B70180E290E00E9482065A9424
:1009C0005110F8CFD8CF512CB701802F90E00E9462
:1009D0008206D3CF08EB10E0D5CF91108052B7013B
:1009E00090E00E9482060F5F1F4FCFCF23E02515B6
:1009F00010F483E0BDCF512CC0CF6096E2E10C949F
:100A00001D052F923F924F925F926F927F928F922D
:100A10009F92AF92BF92CF92DF92EF92FF920F938D
:100A20001F93CF93DF93CDB7DEB7CA1BDB0B0FB697
:100A3000F894DEBF0FBECDBF09942A883988488854
:100A40005F846E847D848C849B84AA84B984C884EA
:100A5000DF80EE80FD800C811B81AA81B981CE0FE1
:100A6000D11D0FB6F894DEBF0FBECDBFED010895C6
:100A70008F929F92AF92BF92CF92DF92EF92FF92AE
:100A8000CF93DF93EC01688179818A819B81611525
:100A900071058105910521F464E279ED8BE597E01C
:100AA0002DE133EF41E050E00E946E0749015A0109
:100AB0009B01AC01A7EAB1E40E948D076B017C01A8
:100AC000ACEEB4EFA50194010E949B07DC01CB01C1
:100AD0008C0D9D1DAE1DBF1DB7FF03C00197A10961
:100AE000B04888839983AA83BB839F77DF91CF9196
:100AF000FF90EF90DF90CF90BF90AF909F908F903E
:100B000008950E943805089580E091E00E9438051C
:100B10000895A0E0B0E08093000190930101A093BC
:100B20000201B09303010895283008F027E033272D
:100B3000DA01990F311D87FD9160009661057105FD
:100B400039F432602E5F3D9330E32A95E1F7089542
:100B50009F3F30F080387105610509F03C5F3C5FD4
:100B60003D93913008F08068911DDF93CF931F93E0
:100B70000F93FF92EF92192F987F9695E92F9695F4
:100B80009695E90FFF27EA5EFE4F99273327EE245B
:100B9000FF24A701E70105900894079428F4360F75
:100BA000E71EF81E491F511D660F771F881F991FEA
:100BB0000694A1F70590079428F4E70EF81E491F44
:100BC000561FC11D770F881F991F661F0694A1F736
:100BD0000590079428F4F80E491F561FC71FD11D12
:100BE000880F991F661F771F0694A1F70590079439
:100BF00020F4490F561FC71FD81F990F661F771F74
:100C0000881F0694A9F784911095177041F0D69526
:100C1000C79557954795F794E7941A95C1F7ECEB6C
:100C2000F0E0689415901591359165919591059036
:100C30007FE27395E118F10A430B560BC90BD009FB
:100C4000C0F7E10CF11E431F561FC91FD01D7EF4D3
:100C5000703311F48A95E6CFE894015030F0080F14
:100C60000AF40027021708F4202F2395022F7A3365
:100C700028F079E37D932A95E9F710C07D932A95B2
:100C800089F6069497956795379517951794E11807
:100C9000F10A430B560BC90BD00998F023957E91AE
:100CA00073957A3308F070E37C932013B8F77E9144
:100CB00070617D9330F0839571E37D9370E32A95A5
:100CC000E1F71124EF90FF900F911F91CF91DF91E9
:100CD000992787FD90950895FC010590615070401B
:100CE0000110D8F7809590958E0F9F1F0895FC01F5
:100CF0006150704001900110D8F7809590958E0F4B
:100D00009F1F08950F931F93CF93DF93FB012381C0
:100D100021FD03C08FEF9FEF2CC022FF16C046813C
:100D20005781248135814217530744F4A081B18152
:100D30009D012F5F3F4F318320838C932681378124
:100D40002F5F3F4F3783268314C08B01EC01FB01DB
:100D50000084F185E02D0995892BE1F6D8011696DE
:100D60008D919C911797019617969C938E93169749
:100D7000CE01DF91CF911F910F910895AEE0B0E0C9
:100D8000E4ECF6E00C940F050D891E898F89988D8F
:100D900026E02C831A83098397FF02C080E090E845
:100DA00001979E838D83AE01455E5F4F698D7A8D7D
:100DB000CE0101960E9484014D815E8157FD0AC0DB
:100DC0002F813885421753070CF49A01F801E20F7E
:100DD000F31F10822E96E4E00C942B05AEE0B0E0F9
:100DE000E4EFF6E00C940F050D891E8986E08C83F4
:100DF0001A8309838FEF9FE79E838D83AE01475E41
:100E00005F4F6F89788DCE0101960E948401EF813A
:100E1000F885E00FF11F10822E96E4E00C942B056C
:100E2000FA01AA27283051F1203181F1E8946F931B
:100E30006E7F6E5F7F4F8F4F9F4FAF4FB1E03ED0C1
:100E4000B4E03CD0670F781F891F9A1FA11D680F5F
:100E5000791F8A1F911DA11D6A0F711D811D911D92
:100E6000A11D20D009F468943F912AE0269F112407
:100E70003019305D3193DEF6CF010895462F47706B
:100E8000405D4193B3E00FD0C9F7F6CF462F4F70C6
:100E9000405D4A3318F0495D31FD4052419302D024
:100EA000A9F7EACFB4E0A6959795879577956795CA
:100EB000BA95C9F700976105710508959B01AC01CA
:100EC0000A2E06945795479537952795BA95C9F7F1
:100ED000620F731F841F951FA01D0895052E97FB99
:100EE0001EF400940E94850757FD07D00E94A007BA
:100EF00007FC03D04EF40C9485075095409530952F
:100F000021953F4F4F4F5F4F089590958095709575
:100F100061957F4F8F4F9F4F08950E94C207A59FF5
:100F2000900DB49F900DA49F800D911D11240895E4
:100F3000B7FF0C948D070E948D07821B930B0895B9
:100F4000A1E21A2EAA1BBB1BFD010DC0AA1FBB1FCD
:100F5000EE1FFF1FA217B307E407F50720F0A21B3F
:100F6000B30BE40BF50B661F771F881F991F1A94AC
:100F700069F760957095809590959B01AC01BD01D6
:100F8000CF010895A29FB001B39FC001A39F700D30
:100F9000811D1124911DB29F700D811D1124911D81
:060FA0000895F894FFCF54
:100FA600010000003AECDA41200053555000436F2F
:100FB6006E6E6563746564210D0A002533640D0A3F
:040FC600002567009B
:00000001FF
