:100000000C945A000C9464000C9464000C946400EA
:100010000C9464000C9464000C9464000C946400D0
:100020000C9464000C9464000C9464000C946400C0
:100030000C9464000C9464000C9464000C946400B0
:100040000C9464000C9464000C9464000C946400A0
:100050000C9464000C9464000C9464000C94640090
:100060000C9464000C9464000C9464000C94640080
:100070000C9464000C9464000C9464000C94640070
:100080000C9464000C9464000C9464000C94640060
:100090000C9464000C9464000C9464000C94640050
:1000A0000C9464000C9464000C9464000C94640040
:1000B0000C94640011241FBECFEFD8E0DEBFCDBF8B
:1000C0000E9466000C9480000C9400008FEF84B9AD
:1000D00017B888B982E086BD85E085BD3CE393E032
:1000E0004BEF21E035B986B18D37E1F796BD45B9C3
:1000F0008DE4A89BFECF8150A9F396BD25BBF9CF17
:04010000F894FFCFA1
:00000001FF
